:0300000002016D8D
:03002300020100D7
:10010000B8FF028004E8F978FFE599547FC298F8B7
:10011000B83006780075903F32B831067801759096
:100120000632B83206780275905B32B8330678032F
:1001300075904F32B83406780475906632B835063B
:10014000780575906D32B83606780675907D32B8B0
:100150003706780775900732B83806780875907FAB
:1001600032B8390678097590673278FF3278FF79AE
:10017000FF7AFF7BFF7C007D007E007F0075892079
:10018000758DE6759850D28E75900075A890B9FF60
:100190000280FBB8FF0280FB75A800120800120362
:1001A00000120900120300BAFF0BBBFF0812040083
:0A01B000BF00D880E612060080E1CF
:070300007EE60000DEFC2296
:10040000BF000280012230981FE599547FC298FFF7
:10041000BF2B03801622BF2D03801022BF2A03802A
:100420000A22BF2F038004227F0022E8FA78FFE926
:07043000FB79FF759000222B
:10060000BD0002800122E599547FC298FDBD3D02E4
:1006100080037D002275F00ABF2B1BE9A428F8EBAC
:1006200075F00AA42A2875F00A84A8F0F97AFF7BED
:10063000FF7D007F0022BF2D1BE9A428F8EB75F099
:100640000AA42A9875F00A84A8F0F97AFF7BFF7D46
:10065000007F0022BF2A20E9A475F00A28F8EBA445
:1006600075F00A2A88F0A475F00A84A8F0F97AFFD8
:100670007BFF7D007F0022E9A428F8EB75F00AA437
:100680002A88F08475F00A84A8F0F97AFF7BFF7D50
:04069000007F0022C5
:10080000B900047590BF22B9010475908622B9021F
:10081000047590DB22B903047590CF22B9040475E6
:1008200090E622B905047590ED22B906047590FD95
:1008300022B9070475908722B908047590FF22B980
:0708400009047590E7222274
:10090000B8000475903F22B8010475900622B80221
:100910000475905B22B8030475904F22B8040475E7
:10092000906622B8050475906D22B8060475907D16
:1009300022B8070475900722B8080475907F22B882
:0709400009047590672222F3
:00000001FF
