:100000007590FF75B000780279087A207B807C01BA
:10001000740012015A12015A12015A75B001E5B06A
:1000200023F5B012015AE59064FF60F275B000123A
:10003000014B12014B12014BECFD120056ECFD126C
:1000400000CF0C12014B12014B12014B74099C6042
:100050000280DC12016588B012014B75B0001201FC
:100060004B1DED60698BB012014B75B00012014B56
:100070001DED605A89B012014B75B00012014B1D85
:10008000ED604B8AB012014B75B00012014B1DEDB3
:10009000603C8BB012014B75B00012014B1DED603E
:1000A0002D88B012014B75B00012014B1DED601E82
:1000B0008AB012014B75B00012014B1DED600F8923
:1000C000B012014B75B00012014B1DED600022749F
:1000D000001201415860681DED6054740012014126
:1000E0005B605C1DED604874001201415960501D59
:1000F000ED603C74001201415A60441DED603074A3
:10010000001201415B60381DED6024740012014152
:1001100058602C1DED601874001201415A60201DBA
:0C012000ED600C74001201415960141DC8
:10012C00ED600075B0FF12014B12014B12014B75C3
:10013C00B000220100E59064FF60FA12015A227FA0
:10014C00FF7EFF000000000000DEF8DFF4227FFFDE
:10015C007EE60000DEFCDFF82275B0AA12015A75AB
:10016C00B05512015A75B0AA12015A75B055120148
:10017C005A75B0AA12015A75B05512015A75B0AA27
:0B018C0012015A75B05512015A80CEC6
:00000001FF
