:0300000002016D8D
:03002300020100D7
:10010000B8FF028004E8F978FFE599547FC298F8B7
:10011000B83006780075903F32B831067801759096
:100120000632B83206780275905B32B8330678032F
:1001300075904F32B83406780475906632B835063B
:10014000780575906D32B83606780675907D32B8B0
:100150003706780775900732B83806780875907FAB
:1001600032B8390678097590673278FF3278FF79AE
:10017000FF7AFF7BFF7C007D007E007F00903000D7
:10018000740EF07438F01203001203007401F012C0
:100190000300120300903001758920758DE6759873
:1001A00050D28E75900075A890B9FF0280FBB8FF01
:1001B0000280FB75A8001208001203001209001249
:1001C0000300BAFF0BBBFF08120400BF00D880F287
:0501D00012060080EDA5
:070300007EE60000DEFC2296
:10040000BF0002800122309843E599547FC298FFD3
:10041000BF2B0C742BF0120300120300803122BF9B
:100420002D0C742DF0120300120300802222BF2A2B
:100430000C742AF0120300120300801322BF2F0C49
:10044000742FF01203001203008004227F0022E8C0
:0B045000FA78FFE9FB79FF75900022AD
:10060000BD0002800122E599547FC298FDBD3D02E4
:1006100080037D002275F00A743DF012030012037E
:1006200000BF2B27E9A428F8EB75F00AA42A287547
:10063000F00A84A8F0F97AFF7BFF7D007F001208A2
:100640000012030012090012030022BF2D27E9A4A3
:1006500028F8EB75F00AA42A9875F00A84A8F0F936
:100660007AFF7BFF7D007F00120800120300120951
:100670000012030022BF2A2CE9A475F00A28F8EB27
:10068000A475F00A2A88F0A475F00A84A8F0F97A13
:10069000FF7BFF7D007F001208001203001209009B
:1006A00012030022E9A428F8EB75F00AA42A88F0C6
:1006B0008475F00A84A8F0F97AFF7BFF7D007F0043
:0D06C00012080012030012090012030022AC
:10080000B9000A7430F012030012030022B9010A81
:100810007431F012030012030022B9020A7432F09C
:1008200012030012030022B9030A7433F01203000A
:1008300012030022B9040A7434F0120300120300F8
:1008400022B9050A7435F012030012030022B9061A
:100850000A7436F012030012030022B9070A743733
:10086000F012030012030022B9080A7438F01203D0
:100870000012030022B9090A7439F01203001203AE
:0308800000222231
:10090000B8000A7430F012030012030022B8010A82
:100910007431F012030012030022B8020A7432F09C
:1009200012030012030022B8030A7433F01203000A
:1009300012030022B8040A7434F0120300120300F8
:1009400022B8050A7435F012030012030022B8061B
:100950000A7436F012030012030022B8070A743733
:10096000F012030012030022B8080A7438F01203D0
:100970000012030022B8090A7439F01203001203AE
:0309800000222230
:00000001FF
